{
  "_format": "hh-sol-artifact-1",
  "contractName": "MyEpicNFT",
  "sourceName": "contracts/MyEpicNFT.sol",
  "abi": [
    {
      "inputs": [],
      "stateMutability": "nonpayable",
      "type": "constructor"
    },
    {
      "anonymous": false,
      "inputs": [
        {
          "indexed": true,
          "internalType": "address",
          "name": "owner",
          "type": "address"
        },
        {
          "indexed": true,
          "internalType": "address",
          "name": "approved",
          "type": "address"
        },
        {
          "indexed": true,
          "internalType": "uint256",
          "name": "tokenId",
          "type": "uint256"
        }
      ],
      "name": "Approval",
      "type": "event"
    },
    {
      "anonymous": false,
      "inputs": [
        {
          "indexed": true,
          "internalType": "address",
          "name": "owner",
          "type": "address"
        },
        {
          "indexed": true,
          "internalType": "address",
          "name": "operator",
          "type": "address"
        },
        {
          "indexed": false,
          "internalType": "bool",
          "name": "approved",
          "type": "bool"
        }
      ],
      "name": "ApprovalForAll",
      "type": "event"
    },
    {
      "anonymous": false,
      "inputs": [
        {
          "indexed": false,
          "internalType": "address",
          "name": "sender",
          "type": "address"
        },
        {
          "indexed": false,
          "internalType": "uint256",
          "name": "tokenId",
          "type": "uint256"
        }
      ],
      "name": "NewEpicNFTMinted",
      "type": "event"
    },
    {
      "anonymous": false,
      "inputs": [
        {
          "indexed": true,
          "internalType": "address",
          "name": "from",
          "type": "address"
        },
        {
          "indexed": true,
          "internalType": "address",
          "name": "to",
          "type": "address"
        },
        {
          "indexed": true,
          "internalType": "uint256",
          "name": "tokenId",
          "type": "uint256"
        }
      ],
      "name": "Transfer",
      "type": "event"
    },
    {
      "inputs": [
        {
          "internalType": "address",
          "name": "to",
          "type": "address"
        },
        {
          "internalType": "uint256",
          "name": "tokenId",
          "type": "uint256"
        }
      ],
      "name": "approve",
      "outputs": [],
      "stateMutability": "nonpayable",
      "type": "function"
    },
    {
      "inputs": [
        {
          "internalType": "address",
          "name": "owner",
          "type": "address"
        }
      ],
      "name": "balanceOf",
      "outputs": [
        {
          "internalType": "uint256",
          "name": "",
          "type": "uint256"
        }
      ],
      "stateMutability": "view",
      "type": "function"
    },
    {
      "inputs": [
        {
          "internalType": "uint256",
          "name": "tokenId",
          "type": "uint256"
        }
      ],
      "name": "getApproved",
      "outputs": [
        {
          "internalType": "address",
          "name": "",
          "type": "address"
        }
      ],
      "stateMutability": "view",
      "type": "function"
    },
    {
      "inputs": [
        {
          "internalType": "address",
          "name": "owner",
          "type": "address"
        },
        {
          "internalType": "address",
          "name": "operator",
          "type": "address"
        }
      ],
      "name": "isApprovedForAll",
      "outputs": [
        {
          "internalType": "bool",
          "name": "",
          "type": "bool"
        }
      ],
      "stateMutability": "view",
      "type": "function"
    },
    {
      "inputs": [],
      "name": "makeAnEpicNFT",
      "outputs": [],
      "stateMutability": "nonpayable",
      "type": "function"
    },
    {
      "inputs": [],
      "name": "name",
      "outputs": [
        {
          "internalType": "string",
          "name": "",
          "type": "string"
        }
      ],
      "stateMutability": "view",
      "type": "function"
    },
    {
      "inputs": [
        {
          "internalType": "uint256",
          "name": "tokenId",
          "type": "uint256"
        }
      ],
      "name": "ownerOf",
      "outputs": [
        {
          "internalType": "address",
          "name": "",
          "type": "address"
        }
      ],
      "stateMutability": "view",
      "type": "function"
    },
    {
      "inputs": [
        {
          "internalType": "uint256",
          "name": "tokenId",
          "type": "uint256"
        },
        {
          "internalType": "string[]",
          "name": "words",
          "type": "string[]"
        }
      ],
      "name": "randomPick",
      "outputs": [
        {
          "internalType": "string",
          "name": "",
          "type": "string"
        }
      ],
      "stateMutability": "pure",
      "type": "function"
    },
    {
      "inputs": [
        {
          "internalType": "address",
          "name": "from",
          "type": "address"
        },
        {
          "internalType": "address",
          "name": "to",
          "type": "address"
        },
        {
          "internalType": "uint256",
          "name": "tokenId",
          "type": "uint256"
        }
      ],
      "name": "safeTransferFrom",
      "outputs": [],
      "stateMutability": "nonpayable",
      "type": "function"
    },
    {
      "inputs": [
        {
          "internalType": "address",
          "name": "from",
          "type": "address"
        },
        {
          "internalType": "address",
          "name": "to",
          "type": "address"
        },
        {
          "internalType": "uint256",
          "name": "tokenId",
          "type": "uint256"
        },
        {
          "internalType": "bytes",
          "name": "_data",
          "type": "bytes"
        }
      ],
      "name": "safeTransferFrom",
      "outputs": [],
      "stateMutability": "nonpayable",
      "type": "function"
    },
    {
      "inputs": [
        {
          "internalType": "address",
          "name": "operator",
          "type": "address"
        },
        {
          "internalType": "bool",
          "name": "approved",
          "type": "bool"
        }
      ],
      "name": "setApprovalForAll",
      "outputs": [],
      "stateMutability": "nonpayable",
      "type": "function"
    },
    {
      "inputs": [
        {
          "internalType": "bytes4",
          "name": "interfaceId",
          "type": "bytes4"
        }
      ],
      "name": "supportsInterface",
      "outputs": [
        {
          "internalType": "bool",
          "name": "",
          "type": "bool"
        }
      ],
      "stateMutability": "view",
      "type": "function"
    },
    {
      "inputs": [],
      "name": "symbol",
      "outputs": [
        {
          "internalType": "string",
          "name": "",
          "type": "string"
        }
      ],
      "stateMutability": "view",
      "type": "function"
    },
    {
      "inputs": [
        {
          "internalType": "uint256",
          "name": "tokenId",
          "type": "uint256"
        }
      ],
      "name": "tokenURI",
      "outputs": [
        {
          "internalType": "string",
          "name": "",
          "type": "string"
        }
      ],
      "stateMutability": "view",
      "type": "function"
    },
    {
      "inputs": [
        {
          "internalType": "address",
          "name": "from",
          "type": "address"
        },
        {
          "internalType": "address",
          "name": "to",
          "type": "address"
        },
        {
          "internalType": "uint256",
          "name": "tokenId",
          "type": "uint256"
        }
      ],
      "name": "transferFrom",
      "outputs": [],
      "stateMutability": "nonpayable",
      "type": "function"
    }
  ],
  "bytecode": "0x608060405260405180610160016040528061012f81526020016200434561012f913960089080519060200190620000389291906200067e565b506040518060c001604052806040518060400160405280600481526020017f4761656c0000000000000000000000000000000000000000000000000000000081525081526020016040518060400160405280600681526020017f456c76697261000000000000000000000000000000000000000000000000000081525081526020016040518060400160405280600581526020017f4a616e656b00000000000000000000000000000000000000000000000000000081525081526020016040518060400160405280600581526020017f4a756e696100000000000000000000000000000000000000000000000000000081525081526020016040518060400160405280600781526020017f4a6f736569746f0000000000000000000000000000000000000000000000000081525081526020016040518060400160405280600681526020017f4c6172696e6500000000000000000000000000000000000000000000000000008152508152506009906006620001b69291906200070f565b506040518060c001604052806040518060400160405280600581526020017f416d69747900000000000000000000000000000000000000000000000000000081525081526020016040518060400160405280600581526020017f4d6175726500000000000000000000000000000000000000000000000000000081525081526020016040518060400160405280600981526020017f4272697474616e6579000000000000000000000000000000000000000000000081525081526020016040518060400160405280600681526020017f4a6172766973000000000000000000000000000000000000000000000000000081525081526020016040518060400160405280600581526020017f4465616e6100000000000000000000000000000000000000000000000000000081525081526020016040518060400160405280600781526020017f42657274696e6100000000000000000000000000000000000000000000000000815250815250600a906006620003349291906200070f565b506040518060c001604052806040518060400160405280600681526020017f596574746965000000000000000000000000000000000000000000000000000081525081526020016040518060400160405280600481526020017f4469616e0000000000000000000000000000000000000000000000000000000081525081526020016040518060400160405280600681526020017f4d656c616e79000000000000000000000000000000000000000000000000000081525081526020016040518060400160405280600681526020017f4b65656c6279000000000000000000000000000000000000000000000000000081525081526020016040518060400160405280600681526020017f566972676965000000000000000000000000000000000000000000000000000081525081526020016040518060400160405280600581526020017f4465776579000000000000000000000000000000000000000000000000000000815250815250600b906006620004b29291906200070f565b50348015620004c057600080fd5b506040518060400160405280600981526020017f5371756172654e465400000000000000000000000000000000000000000000008152506040518060400160405280600681526020017f53515541524500000000000000000000000000000000000000000000000000008152508160009080519060200190620005459291906200067e565b5080600190805190602001906200055e9291906200067e565b505050620005ac6040518060400160405280600f81526020017f54686973206973206d79206e6674210000000000000000000000000000000000815250620005b260201b6200107b1760201c565b62000930565b6200065281604051602401620005c9919062000844565b6040516020818303038152906040527f41304fac000000000000000000000000000000000000000000000000000000007bffffffffffffffffffffffffffffffffffffffffffffffffffffffff19166020820180517bffffffffffffffffffffffffffffffffffffffffffffffffffffffff83818316178352505050506200065560201b60201c565b50565b60008151905060006a636f6e736f6c652e6c6f679050602083016000808483855afa5050505050565b8280546200068c90620008ba565b90600052602060002090601f016020900481019282620006b05760008555620006fc565b82601f10620006cb57805160ff1916838001178555620006fc565b82800160010185558215620006fc579182015b82811115620006fb578251825591602001919060010190620006de565b5b5090506200070b919062000776565b5090565b82805482825590600052602060002090810192821562000763579160200282015b8281111562000762578251829080519060200190620007519291906200067e565b509160200191906001019062000730565b5b50905062000772919062000795565b5090565b5b808211156200079157600081600090555060010162000777565b5090565b5b80821115620007b95760008181620007af9190620007bd565b5060010162000796565b5090565b508054620007cb90620008ba565b6000825580601f10620007df575062000800565b601f016020900490600052602060002090810190620007ff919062000776565b5b50565b6000620008108262000868565b6200081c818562000873565b93506200082e81856020860162000884565b62000839816200091f565b840191505092915050565b6000602082019050818103600083015262000860818462000803565b905092915050565b600081519050919050565b600082825260208201905092915050565b60005b83811015620008a457808201518184015260208101905062000887565b83811115620008b4576000848401525b50505050565b60006002820490506001821680620008d357607f821691505b60208210811415620008ea57620008e9620008f0565b5b50919050565b7f4e487b7100000000000000000000000000000000000000000000000000000000600052602260045260246000fd5b6000601f19601f8301169050919050565b613a0580620009406000396000f3fe608060405234801561001057600080fd5b50600436106100f55760003560e01c806370a0823111610097578063b88d4fde11610066578063b88d4fde14610296578063c87b56dd146102b2578063de9d132f146102e2578063e985e9c5146102ec576100f5565b806370a08231146101fc57806395d89b411461022c578063a015617c1461024a578063a22cb4651461027a576100f5565b8063095ea7b3116100d3578063095ea7b31461017857806323b872dd1461019457806342842e0e146101b05780636352211e146101cc576100f5565b806301ffc9a7146100fa57806306fdde031461012a578063081812fc14610148575b600080fd5b610114600480360381019061010f9190612555565b61031c565b6040516101219190612c12565b60405180910390f35b6101326103fe565b60405161013f9190612c2d565b60405180910390f35b610162600480360381019061015d91906125a7565b610490565b60405161016f9190612b82565b60405180910390f35b610192600480360381019061018d9190612519565b610515565b005b6101ae60048036038101906101a99190612413565b61062d565b005b6101ca60048036038101906101c59190612413565b61068d565b005b6101e660048036038101906101e191906125a7565b6106ad565b6040516101f39190612b82565b60405180910390f35b610216600480360381019061021191906123ae565b61075f565b6040516102239190612e8d565b60405180910390f35b610234610817565b6040516102419190612c2d565b60405180910390f35b610264600480360381019061025f91906125d0565b6108a9565b6040516102719190612c2d565b60405180910390f35b610294600480360381019061028f91906124dd565b61093b565b005b6102b060048036038101906102ab9190612462565b610951565b005b6102cc60048036038101906102c791906125a7565b6109b3565b6040516102d99190612c2d565b60405180910390f35b6102ea610b05565b005b610306600480360381019061030191906123d7565b610fe7565b6040516103139190612c12565b60405180910390f35b60007f80ac58cd000000000000000000000000000000000000000000000000000000007bffffffffffffffffffffffffffffffffffffffffffffffffffffffff1916827bffffffffffffffffffffffffffffffffffffffffffffffffffffffff191614806103e757507f5b5e139f000000000000000000000000000000000000000000000000000000007bffffffffffffffffffffffffffffffffffffffffffffffffffffffff1916827bffffffffffffffffffffffffffffffffffffffffffffffffffffffff1916145b806103f757506103f682611114565b5b9050919050565b60606000805461040d9061317e565b80601f01602080910402602001604051908101604052809291908181526020018280546104399061317e565b80156104865780601f1061045b57610100808354040283529160200191610486565b820191906000526020600020905b81548152906001019060200180831161046957829003601f168201915b5050505050905090565b600061049b8261117e565b6104da576040517f08c379a00000000000000000000000000000000000000000000000000000000081526004016104d190612ded565b60405180910390fd5b6004600083815260200190815260200160002060009054906101000a900473ffffffffffffffffffffffffffffffffffffffff169050919050565b6000610520826106ad565b90508073ffffffffffffffffffffffffffffffffffffffff168373ffffffffffffffffffffffffffffffffffffffff161415610591576040517f08c379a000000000000000000000000000000000000000000000000000000000815260040161058890612e4d565b60405180910390fd5b8073ffffffffffffffffffffffffffffffffffffffff166105b06111ea565b73ffffffffffffffffffffffffffffffffffffffff1614806105df57506105de816105d96111ea565b610fe7565b5b61061e576040517f08c379a000000000000000000000000000000000000000000000000000000000815260040161061590612d2d565b60405180910390fd5b61062883836111f2565b505050565b61063e6106386111ea565b826112ab565b61067d576040517f08c379a000000000000000000000000000000000000000000000000000000000815260040161067490612e6d565b60405180910390fd5b610688838383611389565b505050565b6106a883838360405180602001604052806000815250610951565b505050565b6000806002600084815260200190815260200160002060009054906101000a900473ffffffffffffffffffffffffffffffffffffffff169050600073ffffffffffffffffffffffffffffffffffffffff168173ffffffffffffffffffffffffffffffffffffffff161415610756576040517f08c379a000000000000000000000000000000000000000000000000000000000815260040161074d90612d6d565b60405180910390fd5b80915050919050565b60008073ffffffffffffffffffffffffffffffffffffffff168273ffffffffffffffffffffffffffffffffffffffff1614156107d0576040517f08c379a00000000000000000000000000000000000000000000000000000000081526004016107c790612d4d565b60405180910390fd5b600360008373ffffffffffffffffffffffffffffffffffffffff1673ffffffffffffffffffffffffffffffffffffffff168152602001908152602001600020549050919050565b6060600180546108269061317e565b80601f01602080910402602001604051908101604052809291908181526020018280546108529061317e565b801561089f5780601f106108745761010080835404028352916020019161089f565b820191906000526020600020905b81548152906001019060200180831161088257829003601f168201915b5050505050905090565b606060006108dd6108b9856115e5565b6040516020016108c99190612af9565b604051602081830303815290604052611792565b905060008351826108ee919061322a565b9050838181518110610929577f4e487b7100000000000000000000000000000000000000000000000000000000600052603260045260246000fd5b60200260200101519250505092915050565b61094d6109466111ea565b83836117a6565b5050565b61096261095c6111ea565b836112ab565b6109a1576040517f08c379a000000000000000000000000000000000000000000000000000000000815260040161099890612e6d565b60405180910390fd5b6109ad84848484611913565b50505050565b60606109be8261117e565b6109fd576040517f08c379a00000000000000000000000000000000000000000000000000000000081526004016109f490612dcd565b60405180910390fd5b6000600660008481526020019081526020016000208054610a1d9061317e565b80601f0160208091040260200160405190810160405280929190818152602001828054610a499061317e565b8015610a965780601f10610a6b57610100808354040283529160200191610a96565b820191906000526020600020905b815481529060010190602001808311610a7957829003601f168201915b505050505090506000610aa761196f565b9050600081511415610abd578192505050610b00565b600082511115610af2578082604051602001610ada929190612a75565b60405160208183030381529060405292505050610b00565b610afb84611986565b925050505b919050565b6000610b116007611a2d565b90506000610bf0826009805480602002602001604051908101604052809291908181526020016000905b82821015610be7578382906000526020600020018054610b5a9061317e565b80601f0160208091040260200160405190810160405280929190818152602001828054610b869061317e565b8015610bd35780601f10610ba857610100808354040283529160200191610bd3565b820191906000526020600020905b815481529060010190602001808311610bb657829003601f168201915b505050505081526020019060010190610b3b565b505050506108a9565b90506000610ccf83600a805480602002602001604051908101604052809291908181526020016000905b82821015610cc6578382906000526020600020018054610c399061317e565b80601f0160208091040260200160405190810160405280929190818152602001828054610c659061317e565b8015610cb25780601f10610c8757610100808354040283529160200191610cb2565b820191906000526020600020905b815481529060010190602001808311610c9557829003601f168201915b505050505081526020019060010190610c1a565b505050506108a9565b90506000610dae84600b805480602002602001604051908101604052809291908181526020016000905b82821015610da5578382906000526020600020018054610d189061317e565b80601f0160208091040260200160405190810160405280929190818152602001828054610d449061317e565b8015610d915780601f10610d6657610100808354040283529160200191610d91565b820191906000526020600020905b815481529060010190602001808311610d7457829003601f168201915b505050505081526020019060010190610cf9565b505050506108a9565b90506000838383604051602001610dc793929190612a99565b60405160208183030381529060405290506000600882604051602001610dee929190612aca565b6040516020818303038152906040529050610e3d6040518060400160405280601581526020017f0a2d2d2d2d2d2d2d2d2d2d2d2d2d2d2d2d2d2d2d2d000000000000000000000081525061107b565b610e468161107b565b610e846040518060400160405280601581526020017f2d2d2d2d2d2d2d2d2d2d2d2d2d2d2d2d2d2d2d2d0a000000000000000000000081525061107b565b6000610eb883610e9384611a3b565b604051602001610ea4929190612b1b565b604051602081830303815290604052611a3b565b9050600081604051602001610ecd9190612b60565b6040516020818303038152906040529050610f1c6040518060400160405280601581526020017f0a2d2d2d2d2d2d2d2d2d2d2d2d2d2d2d2d2d2d2d2d000000000000000000000081525061107b565b610f258161107b565b610f636040518060400160405280601581526020017f2d2d2d2d2d2d2d2d2d2d2d2d2d2d2d2d2d2d2d2d0a000000000000000000000081525061107b565b610f6d3389611bda565b610f778882611bf8565b610f816007611c6c565b7febb98688741ffa4c7589bf325de30cf7becb63de567842e1ccdb6cb949fdc82c3389604051610fb2929190612be9565b60405180910390a1610fdd60405180606001604052806025815260200161396b602591398933611c82565b5050505050505050565b6000600560008473ffffffffffffffffffffffffffffffffffffffff1673ffffffffffffffffffffffffffffffffffffffff16815260200190815260200160002060008373ffffffffffffffffffffffffffffffffffffffff1673ffffffffffffffffffffffffffffffffffffffff16815260200190815260200160002060009054906101000a900460ff16905092915050565b6111118160405160240161108f9190612c2d565b6040516020818303038152906040527f41304fac000000000000000000000000000000000000000000000000000000007bffffffffffffffffffffffffffffffffffffffffffffffffffffffff19166020820180517bffffffffffffffffffffffffffffffffffffffffffffffffffffffff8381831617835250505050611d21565b50565b60007f01ffc9a7000000000000000000000000000000000000000000000000000000007bffffffffffffffffffffffffffffffffffffffffffffffffffffffff1916827bffffffffffffffffffffffffffffffffffffffffffffffffffffffff1916149050919050565b60008073ffffffffffffffffffffffffffffffffffffffff166002600084815260200190815260200160002060009054906101000a900473ffffffffffffffffffffffffffffffffffffffff1673ffffffffffffffffffffffffffffffffffffffff1614159050919050565b600033905090565b816004600083815260200190815260200160002060006101000a81548173ffffffffffffffffffffffffffffffffffffffff021916908373ffffffffffffffffffffffffffffffffffffffff160217905550808273ffffffffffffffffffffffffffffffffffffffff16611265836106ad565b73ffffffffffffffffffffffffffffffffffffffff167f8c5be1e5ebec7d5bd14f71427d1e84f3dd0314c0f7b2291e5b200ac8c7c3b92560405160405180910390a45050565b60006112b68261117e565b6112f5576040517f08c379a00000000000000000000000000000000000000000000000000000000081526004016112ec90612d0d565b60405180910390fd5b6000611300836106ad565b90508073ffffffffffffffffffffffffffffffffffffffff168473ffffffffffffffffffffffffffffffffffffffff16148061136f57508373ffffffffffffffffffffffffffffffffffffffff1661135784610490565b73ffffffffffffffffffffffffffffffffffffffff16145b80611380575061137f8185610fe7565b5b91505092915050565b8273ffffffffffffffffffffffffffffffffffffffff166113a9826106ad565b73ffffffffffffffffffffffffffffffffffffffff16146113ff576040517f08c379a00000000000000000000000000000000000000000000000000000000081526004016113f690612e0d565b60405180910390fd5b600073ffffffffffffffffffffffffffffffffffffffff168273ffffffffffffffffffffffffffffffffffffffff16141561146f576040517f08c379a000000000000000000000000000000000000000000000000000000000815260040161146690612ccd565b60405180910390fd5b61147a838383611d4a565b6114856000826111f2565b6001600360008573ffffffffffffffffffffffffffffffffffffffff1673ffffffffffffffffffffffffffffffffffffffff16815260200190815260200160002060008282546114d59190613094565b925050819055506001600360008473ffffffffffffffffffffffffffffffffffffffff1673ffffffffffffffffffffffffffffffffffffffff168152602001908152602001600020600082825461152c9190612fb3565b92505081905550816002600083815260200190815260200160002060006101000a81548173ffffffffffffffffffffffffffffffffffffffff021916908373ffffffffffffffffffffffffffffffffffffffff160217905550808273ffffffffffffffffffffffffffffffffffffffff168473ffffffffffffffffffffffffffffffffffffffff167fddf252ad1be2c89b69c2b068fc378daa952ba7f163c4a11628f55a4df523b3ef60405160405180910390a4505050565b6060600082141561162d576040518060400160405280600181526020017f3000000000000000000000000000000000000000000000000000000000000000815250905061178d565b600082905060005b6000821461165f578080611648906131e1565b915050600a826116589190613009565b9150611635565b60008167ffffffffffffffff8111156116a1577f4e487b7100000000000000000000000000000000000000000000000000000000600052604160045260246000fd5b6040519080825280601f01601f1916602001820160405280156116d35781602001600182028036833780820191505090505b5090505b60008514611786576001826116ec9190613094565b9150600a856116fb919061322a565b60306117079190612fb3565b60f81b818381518110611743577f4e487b7100000000000000000000000000000000000000000000000000000000600052603260045260246000fd5b60200101907effffffffffffffffffffffffffffffffffffffffffffffffffffffffffffff1916908160001a905350600a8561177f9190613009565b94506116d7565b8093505050505b919050565b6000818051906020012060001c9050919050565b8173ffffffffffffffffffffffffffffffffffffffff168373ffffffffffffffffffffffffffffffffffffffff161415611815576040517f08c379a000000000000000000000000000000000000000000000000000000000815260040161180c90612ced565b60405180910390fd5b80600560008573ffffffffffffffffffffffffffffffffffffffff1673ffffffffffffffffffffffffffffffffffffffff16815260200190815260200160002060008473ffffffffffffffffffffffffffffffffffffffff1673ffffffffffffffffffffffffffffffffffffffff16815260200190815260200160002060006101000a81548160ff0219169083151502179055508173ffffffffffffffffffffffffffffffffffffffff168373ffffffffffffffffffffffffffffffffffffffff167f17307eab39ab6107e8899845ad3d59bd9653f200f220920489ca2b5937696c31836040516119069190612c12565b60405180910390a3505050565b61191e848484611389565b61192a84848484611d4f565b611969576040517f08c379a000000000000000000000000000000000000000000000000000000000815260040161196090612c8d565b60405180910390fd5b50505050565b606060405180602001604052806000815250905090565b60606119918261117e565b6119d0576040517f08c379a00000000000000000000000000000000000000000000000000000000081526004016119c790612e2d565b60405180910390fd5b60006119da61196f565b905060008151116119fa5760405180602001604052806000815250611a25565b80611a04846115e5565b604051602001611a15929190612a75565b6040516020818303038152906040525b915050919050565b600081600001549050919050565b6060600082511415611a5e57604051806020016040528060008152509050611bd5565b60006040518060600160405280604081526020016139906040913990506000600360028551611a8d9190612fb3565b611a979190613009565b6004611aa3919061303a565b90506000602082611ab49190612fb3565b67ffffffffffffffff811115611af3577f4e487b7100000000000000000000000000000000000000000000000000000000600052604160045260246000fd5b6040519080825280601f01601f191660200182016040528015611b255781602001600182028036833780820191505090505b509050818152600183018586518101602084015b81831015611b94576003830192508251603f8160121c168501518253600182019150603f81600c1c168501518253600182019150603f8160061c168501518253600182019150603f8116850151825360018201915050611b39565b600389510660018114611bae5760028114611bbe57611bc9565b613d3d60f01b6002830352611bc9565b603d60f81b60018303525b50505050508093505050505b919050565b611bf4828260405180602001604052806000815250611ee6565b5050565b611c018261117e565b611c40576040517f08c379a0000000000000000000000000000000000000000000000000000000008152600401611c3790612d8d565b60405180910390fd5b80600660008481526020019081526020016000209080519060200190611c67929190612122565b505050565b6001816000016000828254019250508190555050565b611d1c838383604051602401611c9a93929190612c4f565b6040516020818303038152906040527fe3849f79000000000000000000000000000000000000000000000000000000007bffffffffffffffffffffffffffffffffffffffffffffffffffffffff19166020820180517bffffffffffffffffffffffffffffffffffffffffffffffffffffffff8381831617835250505050611d21565b505050565b60008151905060006a636f6e736f6c652e6c6f679050602083016000808483855afa5050505050565b505050565b6000611d708473ffffffffffffffffffffffffffffffffffffffff16611f41565b15611ed9578373ffffffffffffffffffffffffffffffffffffffff1663150b7a02611d996111ea565b8786866040518563ffffffff1660e01b8152600401611dbb9493929190612b9d565b602060405180830381600087803b158015611dd557600080fd5b505af1925050508015611e0657506040513d601f19601f82011682018060405250810190611e03919061257e565b60015b611e89573d8060008114611e36576040519150601f19603f3d011682016040523d82523d6000602084013e611e3b565b606091505b50600081511415611e81576040517f08c379a0000000000000000000000000000000000000000000000000000000008152600401611e7890612c8d565b60405180910390fd5b805181602001fd5b63150b7a0260e01b7bffffffffffffffffffffffffffffffffffffffffffffffffffffffff1916817bffffffffffffffffffffffffffffffffffffffffffffffffffffffff191614915050611ede565b600190505b949350505050565b611ef08383611f54565b611efd6000848484611d4f565b611f3c576040517f08c379a0000000000000000000000000000000000000000000000000000000008152600401611f3390612c8d565b60405180910390fd5b505050565b600080823b905060008111915050919050565b600073ffffffffffffffffffffffffffffffffffffffff168273ffffffffffffffffffffffffffffffffffffffff161415611fc4576040517f08c379a0000000000000000000000000000000000000000000000000000000008152600401611fbb90612dad565b60405180910390fd5b611fcd8161117e565b1561200d576040517f08c379a000000000000000000000000000000000000000000000000000000000815260040161200490612cad565b60405180910390fd5b61201960008383611d4a565b6001600360008473ffffffffffffffffffffffffffffffffffffffff1673ffffffffffffffffffffffffffffffffffffffff16815260200190815260200160002060008282546120699190612fb3565b92505081905550816002600083815260200190815260200160002060006101000a81548173ffffffffffffffffffffffffffffffffffffffff021916908373ffffffffffffffffffffffffffffffffffffffff160217905550808273ffffffffffffffffffffffffffffffffffffffff16600073ffffffffffffffffffffffffffffffffffffffff167fddf252ad1be2c89b69c2b068fc378daa952ba7f163c4a11628f55a4df523b3ef60405160405180910390a45050565b82805461212e9061317e565b90600052602060002090601f0160209004810192826121505760008555612197565b82601f1061216957805160ff1916838001178555612197565b82800160010185558215612197579182015b8281111561219657825182559160200191906001019061217b565b5b5090506121a491906121a8565b5090565b5b808211156121c15760008160009055506001016121a9565b5090565b60006121d86121d384612ecd565b612ea8565b905080838252602082019050828560208602820111156121f757600080fd5b60005b8581101561224157813567ffffffffffffffff81111561221957600080fd5b808601612226898261236f565b855260208501945060208401935050506001810190506121fa565b5050509392505050565b600061225e61225984612ef9565b612ea8565b90508281526020810184848401111561227657600080fd5b61228184828561313c565b509392505050565b600061229c61229784612f2a565b612ea8565b9050828152602081018484840111156122b457600080fd5b6122bf84828561313c565b509392505050565b6000813590506122d68161390e565b92915050565b600082601f8301126122ed57600080fd5b81356122fd8482602086016121c5565b91505092915050565b60008135905061231581613925565b92915050565b60008135905061232a8161393c565b92915050565b60008151905061233f8161393c565b92915050565b600082601f83011261235657600080fd5b813561236684826020860161224b565b91505092915050565b600082601f83011261238057600080fd5b8135612390848260208601612289565b91505092915050565b6000813590506123a881613953565b92915050565b6000602082840312156123c057600080fd5b60006123ce848285016122c7565b91505092915050565b600080604083850312156123ea57600080fd5b60006123f8858286016122c7565b9250506020612409858286016122c7565b9150509250929050565b60008060006060848603121561242857600080fd5b6000612436868287016122c7565b9350506020612447868287016122c7565b925050604061245886828701612399565b9150509250925092565b6000806000806080858703121561247857600080fd5b6000612486878288016122c7565b9450506020612497878288016122c7565b93505060406124a887828801612399565b925050606085013567ffffffffffffffff8111156124c557600080fd5b6124d187828801612345565b91505092959194509250565b600080604083850312156124f057600080fd5b60006124fe858286016122c7565b925050602061250f85828601612306565b9150509250929050565b6000806040838503121561252c57600080fd5b600061253a858286016122c7565b925050602061254b85828601612399565b9150509250929050565b60006020828403121561256757600080fd5b60006125758482850161231b565b91505092915050565b60006020828403121561259057600080fd5b600061259e84828501612330565b91505092915050565b6000602082840312156125b957600080fd5b60006125c784828501612399565b91505092915050565b600080604083850312156125e357600080fd5b60006125f185828601612399565b925050602083013567ffffffffffffffff81111561260e57600080fd5b61261a858286016122dc565b9150509250929050565b61262d816130c8565b82525050565b61263c816130da565b82525050565b600061264d82612f70565b6126578185612f86565b935061266781856020860161314b565b61267081613317565b840191505092915050565b600061268682612f7b565b6126908185612f97565b93506126a081856020860161314b565b6126a981613317565b840191505092915050565b60006126bf82612f7b565b6126c98185612fa8565b93506126d981856020860161314b565b80840191505092915050565b600081546126f28161317e565b6126fc8186612fa8565b9450600182166000811461271757600181146127285761275b565b60ff1983168652818601935061275b565b61273185612f5b565b60005b8381101561275357815481890152600182019150602081019050612734565b838801955050505b50505092915050565b6000612771603283612f97565b915061277c82613328565b604082019050919050565b6000612794601c83612f97565b915061279f82613377565b602082019050919050565b60006127b7602483612f97565b91506127c2826133a0565b604082019050919050565b60006127da601983612f97565b91506127e5826133ef565b602082019050919050565b60006127fd606383612fa8565b915061280882613418565b606382019050919050565b6000612820600483612fa8565b915061282b826134b3565b600482019050919050565b6000612843602c83612f97565b915061284e826134dc565b604082019050919050565b6000612866600d83612fa8565b91506128718261352b565b600d82019050919050565b6000612889603883612f97565b915061289482613554565b604082019050919050565b60006128ac602a83612f97565b91506128b7826135a3565b604082019050919050565b60006128cf602983612f97565b91506128da826135f2565b604082019050919050565b60006128f2602e83612f97565b91506128fd82613641565b604082019050919050565b6000612915600283612fa8565b915061292082613690565b600282019050919050565b6000612938602083612f97565b9150612943826136b9565b602082019050919050565b600061295b603183612f97565b9150612966826136e2565b604082019050919050565b600061297e602c83612f97565b915061298982613731565b604082019050919050565b60006129a1602983612f97565b91506129ac82613780565b604082019050919050565b60006129c4602f83612f97565b91506129cf826137cf565b604082019050919050565b60006129e7600a83612fa8565b91506129f28261381e565b600a82019050919050565b6000612a0a602183612f97565b9150612a1582613847565b604082019050919050565b6000612a2d601d83612fa8565b9150612a3882613896565b601d82019050919050565b6000612a50603183612f97565b9150612a5b826138bf565b604082019050919050565b612a6f81613132565b82525050565b6000612a8182856126b4565b9150612a8d82846126b4565b91508190509392505050565b6000612aa582866126b4565b9150612ab182856126b4565b9150612abd82846126b4565b9150819050949350505050565b6000612ad682856126e5565b9150612ae282846126b4565b9150612aed82612859565b91508190509392505050565b6000612b0482612813565b9150612b1082846126b4565b915081905092915050565b6000612b26826129da565b9150612b3282856126b4565b9150612b3d826127f0565b9150612b4982846126b4565b9150612b5482612908565b91508190509392505050565b6000612b6b82612a20565b9150612b7782846126b4565b915081905092915050565b6000602082019050612b976000830184612624565b92915050565b6000608082019050612bb26000830187612624565b612bbf6020830186612624565b612bcc6040830185612a66565b8181036060830152612bde8184612642565b905095945050505050565b6000604082019050612bfe6000830185612624565b612c0b6020830184612a66565b9392505050565b6000602082019050612c276000830184612633565b92915050565b60006020820190508181036000830152612c47818461267b565b905092915050565b60006060820190508181036000830152612c69818661267b565b9050612c786020830185612a66565b612c856040830184612624565b949350505050565b60006020820190508181036000830152612ca681612764565b9050919050565b60006020820190508181036000830152612cc681612787565b9050919050565b60006020820190508181036000830152612ce6816127aa565b9050919050565b60006020820190508181036000830152612d06816127cd565b9050919050565b60006020820190508181036000830152612d2681612836565b9050919050565b60006020820190508181036000830152612d468161287c565b9050919050565b60006020820190508181036000830152612d668161289f565b9050919050565b60006020820190508181036000830152612d86816128c2565b9050919050565b60006020820190508181036000830152612da6816128e5565b9050919050565b60006020820190508181036000830152612dc68161292b565b9050919050565b60006020820190508181036000830152612de68161294e565b9050919050565b60006020820190508181036000830152612e0681612971565b9050919050565b60006020820190508181036000830152612e2681612994565b9050919050565b60006020820190508181036000830152612e46816129b7565b9050919050565b60006020820190508181036000830152612e66816129fd565b9050919050565b60006020820190508181036000830152612e8681612a43565b9050919050565b6000602082019050612ea26000830184612a66565b92915050565b6000612eb2612ec3565b9050612ebe82826131b0565b919050565b6000604051905090565b600067ffffffffffffffff821115612ee857612ee76132e8565b5b602082029050602081019050919050565b600067ffffffffffffffff821115612f1457612f136132e8565b5b612f1d82613317565b9050602081019050919050565b600067ffffffffffffffff821115612f4557612f446132e8565b5b612f4e82613317565b9050602081019050919050565b60008190508160005260206000209050919050565b600081519050919050565b600081519050919050565b600082825260208201905092915050565b600082825260208201905092915050565b600081905092915050565b6000612fbe82613132565b9150612fc983613132565b9250827fffffffffffffffffffffffffffffffffffffffffffffffffffffffffffffffff03821115612ffe57612ffd61325b565b5b828201905092915050565b600061301482613132565b915061301f83613132565b92508261302f5761302e61328a565b5b828204905092915050565b600061304582613132565b915061305083613132565b9250817fffffffffffffffffffffffffffffffffffffffffffffffffffffffffffffffff04831182151516156130895761308861325b565b5b828202905092915050565b600061309f82613132565b91506130aa83613132565b9250828210156130bd576130bc61325b565b5b828203905092915050565b60006130d382613112565b9050919050565b60008115159050919050565b60007fffffffff0000000000000000000000000000000000000000000000000000000082169050919050565b600073ffffffffffffffffffffffffffffffffffffffff82169050919050565b6000819050919050565b82818337600083830152505050565b60005b8381101561316957808201518184015260208101905061314e565b83811115613178576000848401525b50505050565b6000600282049050600182168061319657607f821691505b602082108114156131aa576131a96132b9565b5b50919050565b6131b982613317565b810181811067ffffffffffffffff821117156131d8576131d76132e8565b5b80604052505050565b60006131ec82613132565b91507fffffffffffffffffffffffffffffffffffffffffffffffffffffffffffffffff82141561321f5761321e61325b565b5b600182019050919050565b600061323582613132565b915061324083613132565b9250826132505761324f61328a565b5b828206905092915050565b7f4e487b7100000000000000000000000000000000000000000000000000000000600052601160045260246000fd5b7f4e487b7100000000000000000000000000000000000000000000000000000000600052601260045260246000fd5b7f4e487b7100000000000000000000000000000000000000000000000000000000600052602260045260246000fd5b7f4e487b7100000000000000000000000000000000000000000000000000000000600052604160045260246000fd5b6000601f19601f8301169050919050565b7f4552433732313a207472616e7366657220746f206e6f6e20455243373231526560008201527f63656976657220696d706c656d656e7465720000000000000000000000000000602082015250565b7f4552433732313a20746f6b656e20616c7265616479206d696e74656400000000600082015250565b7f4552433732313a207472616e7366657220746f20746865207a65726f2061646460008201527f7265737300000000000000000000000000000000000000000000000000000000602082015250565b7f4552433732313a20617070726f766520746f2063616c6c657200000000000000600082015250565b7f222c20226465736372697074696f6e223a20224120686967686c79206163636c60008201527f61696d656420636f6c6c656374696f6e206f6620737175617265732e222c202260208201527f696d616765223a2022646174613a696d6167652f7376672b786d6c3b6261736560408201527f36342c0000000000000000000000000000000000000000000000000000000000606082015250565b7f574f524400000000000000000000000000000000000000000000000000000000600082015250565b7f4552433732313a206f70657261746f7220717565727920666f72206e6f6e657860008201527f697374656e7420746f6b656e0000000000000000000000000000000000000000602082015250565b7f3c2f746578743e3c2f7376673e00000000000000000000000000000000000000600082015250565b7f4552433732313a20617070726f76652063616c6c6572206973206e6f74206f7760008201527f6e6572206e6f7220617070726f76656420666f7220616c6c0000000000000000602082015250565b7f4552433732313a2062616c616e636520717565727920666f7220746865207a6560008201527f726f206164647265737300000000000000000000000000000000000000000000602082015250565b7f4552433732313a206f776e657220717565727920666f72206e6f6e657869737460008201527f656e7420746f6b656e0000000000000000000000000000000000000000000000602082015250565b7f45524337323155524953746f726167653a2055524920736574206f66206e6f6e60008201527f6578697374656e7420746f6b656e000000000000000000000000000000000000602082015250565b7f227d000000000000000000000000000000000000000000000000000000000000600082015250565b7f4552433732313a206d696e7420746f20746865207a65726f2061646472657373600082015250565b7f45524337323155524953746f726167653a2055524920717565727920666f722060008201527f6e6f6e6578697374656e7420746f6b656e000000000000000000000000000000602082015250565b7f4552433732313a20617070726f76656420717565727920666f72206e6f6e657860008201527f697374656e7420746f6b656e0000000000000000000000000000000000000000602082015250565b7f4552433732313a207472616e73666572206f6620746f6b656e2074686174206960008201527f73206e6f74206f776e0000000000000000000000000000000000000000000000602082015250565b7f4552433732314d657461646174613a2055524920717565727920666f72206e6f60008201527f6e6578697374656e7420746f6b656e0000000000000000000000000000000000602082015250565b7f7b226e616d65223a202200000000000000000000000000000000000000000000600082015250565b7f4552433732313a20617070726f76616c20746f2063757272656e74206f776e6560008201527f7200000000000000000000000000000000000000000000000000000000000000602082015250565b7f646174613a6170706c69636174696f6e2f6a736f6e3b6261736536342c000000600082015250565b7f4552433732313a207472616e736665722063616c6c6572206973206e6f74206f60008201527f776e6572206e6f7220617070726f766564000000000000000000000000000000602082015250565b613917816130c8565b811461392257600080fd5b50565b61392e816130da565b811461393957600080fd5b50565b613945816130e6565b811461395057600080fd5b50565b61395c81613132565b811461396757600080fd5b5056fe416e204e465420772f20494420257320686173206265656e206d696e74656420746f2025734142434445464748494a4b4c4d4e4f505152535455565758595a6162636465666768696a6b6c6d6e6f707172737475767778797a303132333435363738392b2fa264697066735822122097fe9476f30d78793836e721c51819c4c832eb11b6d9b9feee26fa910c7daaf964736f6c634300080400333c73766720786d6c6e733d27687474703a2f2f7777772e77332e6f72672f323030302f73766727207072657365727665417370656374526174696f3d27784d696e594d696e206d656574272076696577426f783d273020302033353020333530273e3c7374796c653e2e62617365207b2066696c6c3a2077686974653b20666f6e742d66616d696c793a2073657269663b20666f6e742d73697a653a20323470783b207d3c2f7374796c653e3c726563742077696474683d273130302527206865696768743d2731303025272066696c6c3d27626c61636b27202f3e3c7465787420783d273530252720793d273530252720636c6173733d27626173652720646f6d696e616e742d626173656c696e653d276d6964646c652720746578742d616e63686f723d276d6964646c65273e",
  "linkReferences": {},
  "deployedLinkReferences": {}
}